8=FIX.4.4|9=77|35=A|34=1|49=FNRA|50=SP|52=20260227-08:40:38.541|56=JPMS|57=44B1|98=0|108=30|10=054|8=FIX.4.4|9=74|35=2|34=2|49=FNRA|50=SP|52=20260227-08:40:38.541|56=JPMS|57=44B1|7=1|16=0|10=135|8=FIX.4.4|9=65|35=5|34=3|49=FNRA|50=SP|52=20260227-08:40:38.557|56=JPMS|57=44B1|10=023|8=FIX.4.4|9=77|35=A|34=4|49=FNRA|50=SP|52=20260227-08:40:39.828|56=JPMS|57=44B1|98=0|108=30|10=066|8=FIX.4.4|9=74|35=2|34=5|49=FNRA|50=SP|52=20260227-08:40:39.828|56=JPMS|57=44B1|7=1|16=0|10=147|8=FIX.4.4|9=65|35=5|34=6|49=FNRA|50=SP|52=20260227-08:40:39.828|56=JPMS|57=44B1|10=028|8=FIX.4.4|9=77|35=A|34=7|49=FNRA|50=SP|52=20260227-08:41:09.832|56=JPMS|57=44B1|98=0|108=30|10=062|8=FIX.4.4|9=74|35=2|34=8|49=FNRA|50=SP|52=20260227-08:41:09.832|56=JPMS|57=44B1|7=1|16=0|10=143|8=FIX.4.4|9=65|35=5|34=9|49=FNRA|50=SP|52=20260227-08:41:09.832|56=JPMS|57=44B1|10=024|8=FIX.4.4|9=78|35=A|34=10|49=FNRA|50=SP|52=20260227-08:41:39.826|56=JPMS|57=44B1|98=0|108=30|10=111|8=FIX.4.4|9=75|35=2|34=11|49=FNRA|50=SP|52=20260227-08:41:39.840|56=JPMS|57=44B1|7=1|16=0|10=188|8=FIX.4.4|9=66|35=5|34=12|49=FNRA|50=SP|52=20260227-08:41:39.842|56=JPMS|57=44B1|10=071|8=FIX.4.4|9=78|35=A|34=13|49=FNRA|50=SP|52=20260227-08:42:09.826|56=JPMS|57=44B1|98=0|108=30|10=112|8=FIX.4.4|9=75|35=2|34=14|49=FNRA|50=SP|52=20260227-08:42:09.841|56=JPMS|57=44B1|7=1|16=0|10=190|8=FIX.4.4|9=66|35=5|34=15|49=FNRA|50=SP|52=20260227-08:42:09.841|56=JPMS|57=44B1|10=071|8=FIX.4.4|9=78|35=A|34=16|49=FNRA|50=SP|52=20260227-08:42:39.830|56=JPMS|57=44B1|98=0|108=30|10=113|8=FIX.4.4|9=75|35=2|34=17|49=FNRA|50=SP|52=20260227-08:42:39.836|56=JPMS|57=44B1|7=1|16=0|10=200|8=FIX.4.4|9=66|35=5|34=18|49=FNRA|50=SP|52=20260227-08:42:39.838|56=JPMS|57=44B1|10=083|8=FIX.4.4|9=78|35=A|34=19|49=FNRA|50=SP|52=20260227-08:43:09.831|56=JPMS|57=44B1|98=0|108=30|10=115|8=FIX.4.4|9=75|35=2|34=20|49=FNRA|50=SP|52=20260227-08:43:09.831|56=JPMS|57=44B1|7=1|16=0|10=187|8=FIX.4.4|9=66|35=5|34=21|49=FNRA|50=SP|52=20260227-08:43:09.831|56=JPMS|57=44B1|10=068|8=FIX.4.4|9=78|35=A|34=22|49=FNRA|50=SP|52=20260227-08:43:39.828|56=JPMS|57=44B1|98=0|108=30|10=118|8=FIX.4.4|9=75|35=2|34=23|49=FNRA|50=SP|52=20260227-08:43:39.828|56=JPMS|57=44B1|7=1|16=0|10=199|8=FIX.4.4|9=66|35=5|34=24|49=FNRA|50=SP|52=20260227-08:43:39.828|56=JPMS|57=44B1|10=080|8=FIX.4.4|9=78|35=A|34=25|49=FNRA|50=SP|52=20260227-08:44:09.827|56=JPMS|57=44B1|98=0|108=30|10=118|8=FIX.4.4|9=75|35=2|34=26|49=FNRA|50=SP|52=20260227-08:44:09.827|56=JPMS|57=44B1|7=1|16=0|10=199|8=FIX.4.4|9=66|35=5|34=27|49=FNRA|50=SP|52=20260227-08:44:09.827|56=JPMS|57=44B1|10=080|8=FIX.4.4|9=78|35=A|34=28|49=FNRA|50=SP|52=20260227-08:44:39.817|56=JPMS|57=44B1|98=0|108=30|10=123|8=FIX.4.4|9=75|35=2|34=29|49=FNRA|50=SP|52=20260227-08:44:39.833|56=JPMS|57=44B1|7=1|16=0|10=202|8=FIX.4.4|9=66|35=5|34=30|49=FNRA|50=SP|52=20260227-08:44:39.833|56=JPMS|57=44B1|10=074|